{
  "contractName": "Transaction",
  "abi": [
    {
      "constant": true,
      "inputs": [
        {
          "internalType": "uint256",
          "name": "",
          "type": "uint256"
        }
      ],
      "name": "buyers",
      "outputs": [
        {
          "internalType": "address",
          "name": "",
          "type": "address"
        }
      ],
      "payable": false,
      "stateMutability": "view",
      "type": "function"
    },
    {
      "constant": false,
      "inputs": [
        {
          "internalType": "uint256",
          "name": "hatId",
          "type": "uint256"
        }
      ],
      "name": "buy",
      "outputs": [
        {
          "internalType": "uint256",
          "name": "",
          "type": "uint256"
        }
      ],
      "payable": false,
      "stateMutability": "nonpayable",
      "type": "function"
    },
    {
      "constant": true,
      "inputs": [],
      "name": "getbuyers",
      "outputs": [
        {
          "internalType": "address[16]",
          "name": "",
          "type": "address[16]"
        }
      ],
      "payable": false,
      "stateMutability": "view",
      "type": "function"
    }
  ],
  "bytecode": "0x608060405234801561001057600080fd5b506102b9806100206000396000f3fe608060405234801561001057600080fd5b50600436106100415760003560e01c806395d3a4bb14610046578063d96a094a1461008c578063f2aa8218146100ce575b600080fd5b61004e61013c565b6040518082601060200280838360005b8381101561007957808201518184015260208101905061005e565b5050505090500191505060405180910390f35b6100b8600480360360208110156100a257600080fd5b81019080803590602001909291905050506101bd565b6040518082815260200191505060405180910390f35b6100fa600480360360208110156100e457600080fd5b810190808035906020019092919050505061022e565b604051808273ffffffffffffffffffffffffffffffffffffffff1673ffffffffffffffffffffffffffffffffffffffff16815260200191505060405180910390f35b610144610261565b60006010806020026040519081016040528092919082601080156101b3576020028201915b8160009054906101000a900473ffffffffffffffffffffffffffffffffffffffff1673ffffffffffffffffffffffffffffffffffffffff1681526020019060010190808311610169575b5050505050905090565b60008082101580156101d05750600f8211155b6101d957600080fd5b33600083601081106101e757fe5b0160006101000a81548173ffffffffffffffffffffffffffffffffffffffff021916908373ffffffffffffffffffffffffffffffffffffffff160217905550819050919050565b6000816010811061023b57fe5b016000915054906101000a900473ffffffffffffffffffffffffffffffffffffffff1681565b60405180610200016040528060109060208202803883398082019150509050509056fea265627a7a72315820284fc7d63eb9f115a00c7fdd5e6a755209bd8f6774c4328cb8c6da100dd2f49b64736f6c63430005100032",
  "source": "// SPDX-License-Identifier: MIT\r\npragma solidity >=0.4.22 <0.9.0;\r\ncontract Transaction {\r\n    address[16] public buyers;\r\n\r\n    // buying a hat\r\n    function buy(uint hatId) public returns (uint) {\r\n    require(hatId >= 0 && hatId <= 15);\r\n\r\n    buyers[hatId] = msg.sender;\r\n\r\n    return hatId;\r\n    }\r\n\r\n    // Retrieving the buyers\r\n    function getbuyers() public view returns (address[16] memory) {\r\n    return buyers;\r\n    }\r\n}",
  "sourcePath": "C:\\Users\\xespinoza\\Desktop\\WSP\\Project prototype\\contracts\\Transaction.sol",
  "compiler": {
    "name": "solc",
    "version": "0.5.16+commit.9c3226ce.Emscripten.clang"
  },
  "schemaVersion": "3.4.13",
  "updatedAt": "2023-03-23T18:23:25.016Z",
  "devdoc": {
    "methods": {}
  },
  "userdoc": {
    "methods": {}
  }
}